:020000040800F2
:10000000E8390020990200083D1E00083F1E000844
:10001000431E0008471E00084B1E00080000000099
:100020000000000000000000000000004F1E00085B
:10003000511E000800000000531E0008551E000855
:10004000B3020008B3020008B3020008B3020008BC
:10005000B3020008B3020008B3020008B3020008AC
:10006000B3020008B3020008B30200086F1F0008C3
:10007000B3020008B30200084F1F0008B3020008D3
:10008000B3020008B3020008B3020008B30200087C
:10009000B3020008B3020008B3020008B30200086C
:1000A000B3020008B3020008B3020008B30200085C
:1000B000B3020008B3020008B3020008B30200084C
:1000C000B3020008B3020008B3020008B30200083C
:1000D000B3020008EB1E0008B3020008B3020008D8
:1000E000B3020008B3020008B302000800000000D9
:1000F0000000000000000000000000000000000000
:100100000000000000000000B3020008B302000875
:100110006D1E0008B3020008B3020008B302000815
:10012000B3020008B3020008B3020008B3020008DB
:10013000CF1E0008B3020008B3020008B302000893
:10014000B3020008B3020008B3020008B3020008BB
:1001500000F002F800F090F80AA090E8000C824449
:100160008344AAF10107DA4501D100F085F8AFF226
:10017000090EBAE80F0013F0010F18BFFB1A43F085
:10018000010318470C5100002C510000103A24BF05
:1001900078C878C1FAD8520724BF30C830C144BFEC
:1001A00004680C607047000000230024002500262E
:1001B000103A28BF78C1FBD8520728BF30C148BFCA
:1001C0000B6070476E2903F05382702903F0978308
:1001D000662904F0EE87652904F0EB87672904F0AF
:1001E000E8876129AFF3008003681B0A28BF41F04C
:1001F0008001692903F00082642903F0FD817529DB
:1002000003F0FA816F2903F02483782903F06383D4
:10021000E92903F0BF82E42903F0BC82F52903F049
:10022000B982EF2903F02183F82903F06283036880
:10023000DB0928BF41F08001632903F01887732987
:1002400003F01D87E32903F02887F32903F02D87A6
:10025000002070471FB501F0CFFE040000200021F0
:1002600004F074FC401C60600020002104F058FC85
:10027000E0601FBD10B510BD03F03BFF1146FFF756
:10028000E9FF01F08BFD04F013F803B4FFF7F2FF70
:1002900003BC04F05BF800000948804709480047A8
:1002A000FEE7FEE7FEE7FEE7FEE7FEE7FEE7FEE726
:1002B000FEE7FEE704480549054A064B7047000083
:1002C0003533000851010008E8090020E839002012
:1002D000E8190020E819002031490143314A116032
:1002E000704770B5002100230F22C47804B32D4C51
:1002F000246804F4E064C4F5E064210AC1F1040355
:10030000CA40447804FA03F1847814402143090177
:10031000254C0678A155047804F01F050124AC4053
:1003200005786D11AD0005F1E025C5F8004109E043
:10033000047804F01F050124AC401C4D06787611AA
:1003400045F8264070BD1A4A0A400243154B1B1F50
:100350001A60704739B1134A121D12680243114BDB
:100360001B1D1A6006E00F4A121D126882430D4BD6
:100370001B1D1A607047042808D14FF0E02109695D
:1003800041F004014FF0E022116107E04FF0E0215D
:10039000096921F004014FF0E0221161704700006B
:1003A0000000FA050CED00E000E400E080E100E070
:1003B00080FFFF1F10B50446FA48844208D101218E
:1003C000401501F019FA0021601501F015FA17E047
:1003D000F548844208D10121001501F00DFA0021F1
:1003E000201501F009FA0BE0F048844208D1012100
:1003F000C80301F001FA00214FF4004001F0FCF9BC
:1004000010BD30B50246002000235068E84C204063
:100410000D790C6844EA0524204350609068E54C4F
:100420002040D1E902542C434D7944EA450420434D
:100430009060D06A20F470000C7C641EE4B2234308
:1004400040EA0350D06230BD00210160017141716A
:100450008160C16001210174704721B1826842F05E
:100460000102826003E0826822F00102826070472C
:1004700021B1826842F48072826003E0826822F4D3
:1004800080728260704710B50023CBB21AB1446805
:100490001C43446002E044689C43446010BD816892
:1004A00041F0080181607047014600208A6802F02F
:1004B00008020AB1012000E000207047816841F085
:1004C000040181607047014600208A6802F004023E
:1004D0000AB1012000E00020704721B1826842F497
:1004E000A002826003E0826822F4A002826070476A
:1004F000014600208A6802F480020AB1012000E06F
:100500000020704710B50A4600210023416821F4FD
:100510006041531E41EA4331416010BD21B1426840
:1005200042F40062426003E0426822F400624260EA
:100530007047F0B504460D4600200021092D11DD5D
:10054000E068A5F10A0606EB4607072606FA07F15A
:100550008843A5F10A0606EB460603FA06F10843AE
:10056000E0600CE0206905EB4507072606FA07F175
:10057000884305EB450603FA06F108432061072A84
:100580000FDA606B561E06EB86071F2606FA07F188
:100590008843561E06EB860605FA06F1084360639B
:1005A00022E00D2A0FDA206BD61F06EB86071F26E6
:1005B00006FA07F18843D61F06EB860605FA06F110
:1005C0000843206310E0E06AA2F10D0606EB8607FF
:1005D0001F2606FA07F18843A2F10D0606EB8606F0
:1005E00005FA06F10843E062F0BD21B1826842F4E9
:1005F0008012826003E0826822F480128260704779
:100600000146C86C80B2704766484C30006870473D
:1006100021B1426842F48062426003E0426822F401
:1006200080624260704721B1426842F48052426069
:1006300003E0426822F48052426070470A4600217B
:10064000816821F4E04111438160704721B18268E3
:1006500042F40042826003E0826822F40042826039
:10066000704721B1826842F40212826003E082681E
:1006700022F4021282607047014600208A6802F468
:1006800000120AB1012000E000207047F0B50446D6
:100690001546002000220026092911DDE068A1F19D
:1006A0000A0707EB470C072707FA0CF29043A1F162
:1006B0000A0707EB470703FA07F21043E0600CE074
:1006C000206901EB410C072707FA0CF2904301EB7C
:1006D000410703FA07F210432061A06BC0F30156F3
:1006E000EF1C06F1010CA7EB0C0707EB870C1F278B
:1006F00007FA0CF29043EF1C06F1010CA7EB0C0774
:1007000007EB870701FA07F21043A063F0BD10B5AD
:100710000A4600210023816B21F44011531E41EA57
:100720000351816310BD08B5002300930090009B26
:100730000B440093009B1A6008BD08B502460020D8
:100740000090009201F12800009B1844009000984E
:10075000006880B208BD0A4600214168164B194066
:100760001143416070474162826270470A4600212E
:10077000416821F01F0111434160704740B10949B0
:100780000831096841F40001064A0832116007E0A7
:1007900004490831096821F40001024A0832116055
:1007A000704700000024014000280140003C014047
:1007B000FFFEF0FFFDF7F1FFFFFD3FFF02460020C7
:1007C00013680B400BB1012000E000207047CA43C2
:1007D0000260704770B502460020002300240B120F
:1007E0005568CEB205EA060415681D4015B10CB176
:1007F000012000E0002070BD00220A12D3430360F4
:100800007047000001684FF6FE7211400160002140
:10081000016041608160C1608D49884208D18C4986
:100820000839496841F00F01894A083A51608AE065
:1008300087491431884208D185490839496841F00F
:10084000F001834A083A51607DE0814928318842AD
:1008500008D17F490839496841F470617C4A083AF7
:10086000516070E07A493C31884208D178490839B2
:10087000496841F47041764A083A516063E074492E
:100880005031884208D172490839496841F47021D1
:100890006F4A083A516056E06D496431884208D188
:1008A0006B490839496841F47001694A083A516056
:1008B00049E067497831884208D165490839496873
:1008C00041F07061624A083A51603CE061498842F7
:1008D00006D1011F096841F00F01021F116032E0CB
:1008E0005C491431884208D15A49091F096841F00E
:1008F000F001584A121F116025E0564928318842FC
:1009000008D15449091F096841F47061514A121F06
:10091000116018E04F493C31884208D14D49091F08
:10092000096841F470414B4A121F11600BE04949BC
:100930005031884207D14749091F096841F47021A5
:10094000444A121F1160704710B50022026847F632
:10095000F0739A430C6A8B6823430C6923434C69F8
:1009600023438C692343CC6923434C6A23438C6A19
:1009700023431A430260CB6843600B6883604B6873
:10098000C36010BD0021016041608160C1600161F0
:1009900041618161C161016241628162704721B13F
:1009A000026842F00102026004E002684FF6FE7342
:1009B0001A40026070471AB103680B43036002E0FB
:1009C00003688B4303607047416070470146486885
:1009D00080B2704701460020002201F080531BB115
:1009E0001C4B083B1A6802E0194B083B1A6802EAE4
:1009F00001030BB1012000E00020704700F080519E
:100A000019B11449091F086002E01149083948600A
:100A1000704701460020002201F080531BB10D4BAE
:100A2000083B1A6802E00A4B083B1A6802EA010315
:100A30000BB1012000E00020704700F0805119B197
:100A40000449091F086002E00149083948607047FD
:100A5000080002400804024001460020FE4A1068D7
:100A600000F03800084310607047FB49096821F026
:100A70000801F94A11601146096801431160704785
:100A8000F549096821F01001F34A1160114609681F
:100A9000014311607047F148EF494860F0484860F1
:100AA0007047EE48EC494860ED4848607047EA48B6
:100AB000006940F08000E84908617047E648006935
:100AC00040F08000E449086170470420E249C968A9
:100AD00001F0010109B101200EE0DF49C96801F010
:100AE000040109B1022007E0DB49C96801F01001E7
:100AF00009B1032000E00420704700B5024604233A
:100B0000FFF7E3FF034603E0FFF7DFFF0346521E54
:100B1000012B01D1002AF7D102B90523184600BDE7
:100B200030B5044604254FF43020FFF7E6FF0546B4
:100B3000042D17D1C848006940F00200C649086179
:100B400008464461006940F0400008614FF43020DD
:100B5000FFF7D3FF0546C048006941F6FD71084024
:100B6000BD490861284630BD10B504244FF430203B
:100B7000FFF7C3FF0446042C16D1B748006940F0C4
:100B80000400B54908610846006940F0400008616A
:100B90004FF43020FFF7B1FF0446AF48006941F63B
:100BA000FB710840AC490861204610BD00B5024603
:100BB0000423FFF78AFF034603E0FFF786FF03469F
:100BC000521E012B01D1002AF7D102B90523184684
:100BD00000BD10B504244FF43020FFF7E7FF0446B2
:100BE000042C16D19C48006940F004009A49086121
:100BF0000846006940F0400008614FF43020FFF7DC
:100C0000D5FF04469448006941F6FB7108409249BB
:100C10000861204610BD00208F49C96901F002011A
:100C200009B1012000E00020704730B5A52504245B
:100C3000FFF7F1FF00B100254FF43020FFF75DFF13
:100C40000446042C3AD185488349886084488860EA
:100C50000846006940F0200008610846006940F03D
:100C6000400008614FF43020FFF747FF0446042C92
:100C70001BD17948006941F6DF7108407649086167
:100C80000846006940F01000086176480580E002DF
:100C9000FFF733FF0446052C10D06F48006941F67A
:100CA000EF7108406C49086108E0052C06D06A48DD
:100CB000006941F6EF71084067490861204630BD80
:100CC00078B506460C46042500200090E802FFF7A0
:100CD00014FF0546042D24D15F48006940F001004F
:100CE0005D4908613480E802FFF707FF0546042DDF
:100CF00010D1B01C0090200C00990880E802FFF78A
:100D0000FCFE05465448006941F6FE710840524910
:100D1000086106E05048006941F6FE7108404E49FE
:100D20000861284678BD70B504460D460426F002D9
:100D3000FFF7E3FE0646042E11D14748006940F054
:100D40000100454908612580F002FFF7D6FE0646FE
:100D50004148006941F6FE7108403F49086130464C
:100D600070BD70B505460E460424E002FFF7C5FECF
:100D70000446042C17D139483749886038488860C0
:100D80000846006940F0100008612E80E002FFF77D
:100D9000B4FE0446052C06D02F48006941F6EF71D9
:100DA00008402D490861204670BD2DE9F0430446F6
:100DB0004FF6FF763746B046B1460425E443E6B227
:100DC000C4F30727C4F307484FEA1469E802FFF7A2
:100DD00094FE0546042D49D120481F4988602048CB
:100DE00088600846006940F010000861FF2E06D0B8
:100DF0001C4808300680E802FFF77FFE0546042DF8
:100E000008D1FF2F06D017480A300780E802FFF705
:100E100074FE0546042D0AD1B8F1FF0F07D0114822
:100E20000C30A0F80080E802FFF767FE0546042DAD
:100E30000AD1B9F1FF0F07D00A480E30A0F8009090
:100E4000E802FFF75AFE0546052D0FD0024800695B
:100E500041F6EF71084007E000200240230167459A
:100E6000AB89EFCD00F8FF1F664908612846BDE851
:100E7000F08330B5054604244FF43020FFF73DFEE3
:100E80000446042C41D160485E4988605F48886010
:100E90000846006940F0200008610846006940F0FB
:100EA000400008614FF43020FFF727FE0446042C71
:100EB00022D15448006941F6DF7108405149086168
:100EC0000846006940F0100008611DB1002050493B
:100ED000088002E0A5204E4908804FF43020FFF73B
:100EE0000CFE0446052C10D04648006941F6EF710F
:100EF00008404449086108E0052C06D041480069D3
:100F000041F6DF7108403F490861204630BDF0B529
:100F100005460E46174604243B483A4988603B483C
:100F20008860E002FFF7E9FD0446042C19D135483A
:100F3000006940F010003349086147F0F800304381
:100F400028433349891C0880E002FFF7D6FD044698
:100F5000052C06D02B48006941F6EF71084029495D
:100F600008612046F0BD2748C069800870472548C1
:100F7000006A704700202349096801F0200109B187
:100F8000012000E00020704729B11E4A1269024387
:100F90001C4B1A6104E01B4A12698243194B1A6107
:100FA000704701460020012908D1164AD26902F093
:100FB00001020AB1012008E0002006E0114AD268CF
:100FC0000A400AB1012000E0002070470D49C860C6
:100FD000704704200B49C96801F0010109B10120E3
:100FE0000EE00849C96801F0040109B1022007E0D8
:100FF0000449C96801F0100109B1032000E0042090
:10100000704700000020024023016745AB89EFCD07
:1010100000F8FF1F10B50446CC48844208D10121D6
:10102000042000F0E9FB0021042000F0E5FB46E08D
:10103000C748844208D10121082000F0DDFB0021CF
:10104000082000F0D9FB3AE0C248844208D10121CF
:10105000102000F0D1FB0021102000F0CDFB2EE08D
:10106000BD48844208D10121202000F0C5FB0021A9
:10107000202000F0C1FB22E0B848844208D10121C1
:10108000402000F0B9FB0021402000F0B5FB16E045
:10109000B348844208D10121802000F0ADFB00213B
:1010A000802000F0A9FB0AE0AE48844207D101216C
:1010B000801500F0A1FB0021A01500F09DFB10BDE4
:1010C00010B50121084600F097FB0021012000F037
:1010D00093FB10BD2DE9F0410246002500260020BB
:1010E00000230024002791F803C00CF00F0591F8AD
:1010F00003C00CF0100CBCF1000F03D091F802C03B
:101100004CEA050591F800C0BCF1000F31D014681D
:1011100000202BE04FF0010C0CFA00F3B1F800C0F6
:101120000CEA03069E4220D183004FF00F0C0CFA0C
:1011300003F7BC4305FA03FC4CEA040491F803C02E
:10114000BCF1280F06D14FF0010C0CFA00FCC2F8DC
:1011500014C00AE091F803C0BCF1480F05D14FF06C
:10116000010C0CFA00FCC2F810C0401C0828D1D3B6
:101170001460B1F800C0BCF1FF0F34DD54680020EA
:101180002EE000F1080C4FF0010808FA0CF3B1F85A
:1011900000C00CEA03069E4221D183004FF00F0CE1
:1011A0000CFA03F7BC4305FA03FC4CEA040491F87B
:1011B00003C0BCF1280F05D100F1080C08FA0CF8A7
:1011C000C2F8148091F803C0BCF1480F07D100F1B8
:1011D000080C4FF0010808FA0CF8C2F81080401C07
:1011E0000828CED35460BDE8F0814FF6FF7101802E
:1011F000022181700421C17070470246002093686B
:101200000B400BB1012000E00020704701468868C8
:1012100080B2704702460020D3680B400BB101201A
:1012200000E0002070470146C86880B27047016145
:101230007047416170470AB1016100E04161704748
:10124000C16070474FF480320A43826181618261DC
:1012500082698269704702460020434B18684FF646
:101260008073184040EA021008433F4B18607047F3
:101270003E49C8617047F0B50A46002300240021AA
:10128000002500F00046B6F1004F02D1364EF1695C
:1012900001E0354E7168C0F3034583B200F4401697
:1012A000B6F5401F08D121F070612F4E766826F008
:1012B00070662D4F7E6012E000F48016B6F5801F38
:1012C00006D1032606FA05F4A14341F0706106E059
:1012D000460D360103FA06F6B14341F0706122B1C2
:1012E000460D360103FA06F6314300F00046B6F12A
:1012F000004F02D11C4EF16101E01B4E7160F0BD48
:1013000030B500228B071C0F0F2303FA04F2164B93
:1013100008338C1053F824309343134C08348D1049
:1013200044F8253023468C1053F824308C07240FC2
:1013300000FA04F423430C4C08348D1044F8253093
:1013400030BD0A49DC3108607047000000080140E8
:10135000000C014000100140001401400018014041
:10136000001C01400020014000000140000020421C
:10137000FB48006840F00100F949086008464068F1
:10138000F8490840F649486008460068F6490840B0
:10139000F34908600846006820F480200860084689
:1013A000406820F4FE0048600846006820F0A05025
:1013B00008604FF47F0088600020C8627047E849E9
:1013C000096821F48031E64A11601146096821F468
:1013D00080211160B0F5803F03D0B0F5802F0ED191
:1013E00006E0DF49096841F48031DD4A116007E019
:1013F000DB49096841F4A021D94A116000E000BF2F
:1014000000BF704710B501460022002300204A119A
:10141000012A02D1D24C236806E0022A02D1D04C24
:10142000236A01E0CE4C636A01F01F02012494405C
:101430001C400CB1012000E0002010BD38B5002098
:1014400000900024002500BF3120FFF7DBFF054698
:101450000098401C00900098B0F5A06F01D0002DBE
:10146000F2D03120FFF7CEFF08B1012400E00024C4
:10147000204638BD01460020B94A106820F0F80027
:1014800040EAC10010607047B849086070470246E2
:101490000020B34B586820F4741042EA010318434B
:1014A000AF4B58607047B14908667047024600204C
:1014B000AB4BD86AAE4B184042EA01031843A84B25
:1014C000D862704701460020A54AD06A20F0F0009B
:1014D0000843D062704701460020A14AD06A20F438
:1014E00070600843D0627047A04988667047014623
:1014F00000209B4AD06A20F470400843D0627047B5
:101500009A490867704701460020954A506820F0C4
:1015100003000843506070479148406800F00C0099
:101520007047014600208E4A506820F0F0000843C2
:101530005060704701460020894A506820F4E060FE
:1015400008435060704701460020854A506820F4E7
:10155000605040EAC1005060704729B1804A527A19
:1015600002437F4B5A7204E07D4A527A82437C4B9D
:101570005A7270477D49D831086070470146002093
:10158000774A506820F440400843506070477949DA
:10159000086070477749091D086070470021704A4C
:1015A000203211706E4A82F82010012802D00428DF
:1015B0000AD104E001216A4A2032117005E00521B8
:1015C000674A2032117000E000BF00BF70476A49CF
:1015D000086070476249096A0143614A11627047B5
:1015E00065494439086070472DE9F0410021002227
:1015F000002500230026002400278C46DFF86081A8
:10160000D8F8048008F00C0121B1042907D008297A
:1016100059D109E0DFF86481C0F8008058E0DFF8B4
:101620006081C0F8008053E0DFF83481D8F804808E
:1016300008F47012DFF82881D8F8048008F48035A7
:10164000920C0D2A01D0921C00E0062235B9DFF879
:10165000348102FB08F8C0F8008033E0DFF8008135
:10166000D8F82C8008F48036DFF8F480D8F82C8085
:1016700008F00F0808F1010446B9DFF80481B8FB4F
:10168000F4F808FB02F8C0F800801BE0DFF8D08017
:10169000D8F82C80C8F3031808F10107DFF8C080E0
:1016A000D8F82C80C8F3032808F1020CDFF8D080AA
:1016B000B8FBF7F808FB0CF8B8FBF4F808FB02F8E5
:1016C000C0F8008004E0DFF8B480C0F8008000BFFC
:1016D00000BFDFF88C80D8F8048008F0F001090919
:1016E000DFF8A48018F80130D0F8008028FA03F859
:1016F000C0F80480DFF86880D8F8048008F4E0615E
:10170000090ADFF8848018F80130D0F8048028FA3C
:1017100003F8C0F80880DFF84880D8F8048008F49F
:101720006051C90ADFF8608018F80130D0F80480F1
:1017300028FA03F8C0F80C80DFF82480D8F8048079
:1017400008F44041890BDFF8448018F80130D0F8E4
:101750000C80B8FBF3F8C0F81080BDE8F081000001
:10176000001002400000FFF0FFFFF6FE00004242C2
:10177000F0FFFEFFC40542428004424200127A009C
:101780000024F40000093D000000002010000020AB
:1017900029B1354A52690243334B5A6104E0324A57
:1017A00052698243304B5A61704729B12E4A92697F
:1017B00002432D4B9A6104E02B4A926982432A4BE3
:1017C0009A61704729B1284AD2690243264BDA61EF
:1017D00004E0254AD2698243234BDA61704729B17C
:1017E000214A926A0243204B9A6204E01E4A926A9E
:1017F00082431D4B9A62704729B11B4AD26802434B
:10180000194BDA6004E0184AD2688243164BDA605A
:10181000704729B1144A12690243134B1A6104E05C
:10182000114A12698243104B1A6170470F490860D0
:1018300070470F49C86470470B49C87170470A4820
:10184000406A40F0807008494862704701460020B5
:10185000054A92680A400AB1012000E00020704762
:101860000149887270470000001002404004424263
:101870000000424210B50446FB48844209D10121D0
:101880008803FFF7B9FF00214FF48040FFF7B4FF52
:1018900032E0F648844209D101214804FFF7B9FF3C
:1018A00000214FF40030FFF7B4FF25E0F0488442F8
:1018B00009D101218804FFF7ACFF00214FF48020FB
:1018C000FFF7A7FF18E0EB48844209D10121C804C3
:1018D000FFF79FFF00214FF40020FFF79AFF0BE076
:1018E000E548844208D101210805FFF792FF002155
:1018F0004FF48010FFF78DFF10BD2DE9F04786B043
:1019000005460E460024A24600BFA1460027B08926
:1019100000B100BF2F462C8A4CF6FF700440F088BF
:1019200004432C82AC894EF6F3100440B088318910
:101930000843718908430443AC81AC8A4FF6FF40E9
:101940000440B0890443AC8201A8FFF74DFEC648AD
:10195000874202D1DDF810A001E0DDF80CA0A889D3
:1019600000F4004040B10AEBCA0000EB0A103168F5
:101970004900B0FBF1F807E00AEBCA0000EB0A10DF
:1019800031688900B0FBF1F86420B8FBF0F0040185
:101990002009642101FB1089A88900F4004040B1AE
:1019A000322000EBC900B0FBF1F000F00700044367
:1019B00008E0322000EB09106421B0FBF1F000F0E8
:1019C0000F0004432C8106B0BDE8F0874FF4165198
:1019D000016000218180C18001810C2141810021B1
:1019E0008181704710B502460020108A4FF2FF0334
:1019F00018400B884C8823438C882343CC8823438E
:101A00001843108210BD0021018041808180C18077
:101A1000704721B1828942F40052828104E08289B8
:101A20004DF6FF731A4082817047F0B503460024DB
:101A300000260025002040F66A17B94200D100BFF9
:101A40001846C1F3421401F01F06012707FA06F5F4
:101A5000012C01D10C3004E0022C01D1103000E047
:101A600014301AB107682F43076002E00768AF43DC
:101A70000760F0BD1AB1838A0B43838202E0838A38
:101A80008B4383827047028A4FF6F0731A400282BA
:101A9000028A0A430282704782894FF2FF731A401A
:101AA000828182890A438281704721B1828942F012
:101AB0000202828104E082894FF6FD731A4082811E
:101AC0007047028A4FF6DF731A400282028A0A4385
:101AD0000282704721B1028A42F48042028204E00D
:101AE000028A4BF6FF731A4002827047C1F3080264
:101AF0008280704701468888C0F30800704781895A
:101B000041F0010181817047028BD2B20283028BC6
:101B100042EA012202837047028B02F47F42028371
:101B2000028B0A430283704721B1828A42F020026D
:101B3000828204E0828A4FF6DF731A408282704705
:101B400021B1828A42F01002828204E0828A4FF63A
:101B5000EF731A408282704721B1828A42F00802F4
:101B6000828204E0828A4FF6F7731A4082827047BD
:101B700021B1828942F40042828103E08289C2F36A
:101B80000E028281704721B1828A42F40062828211
:101B900004E0828A4FF2FF731A4082827047828A81
:101BA0004FF6FB731A408282828A0A438282704710
:101BB00021B1828A42F00202828204E0828A4FF6D8
:101BC000FD731A408282704702460020B1F5007F03
:101BD00000D100BF13880B400BB1012000E00020B2
:101BE000704701F40072B2F5007F00D100BFCA4314
:101BF0000280704770B502460024002300250020B3
:101C000040F66A16B14200D100BFC1F3421501F09F
:101C10001F03012606FA03F3012D02D196893340F2
:101C200006E0022D02D1168A334001E0968A334045
:101C30000C12012606FA04F41688344013B10CB1D4
:101C4000012000E0002070BD10B50022002340F606
:101C50006A14A14200D100BF0A1201249440A3B229
:101C6000DC43048010BD0000003801400044004007
:101C700000480040004C004000500040012101702D
:101C8000704700210170704700210160416070477A
:101C900001460878012808D13B4800684A68801A44
:101CA0004A88904201D3012070470020FCE7418020
:101CB000354A126842607047012202704180324A00
:101CC00012684260704710B503460C46002107E0D9
:101CD000585C904202D04FF0FF3010BD481CC1B29A
:101CE000A142F5DB0020F8E730B504461346002595
:101CF000002208E0501C31F8100021F8120031F8E1
:101D000012000544521C581E9042F3DC21F810408A
:101D10002544B5FBF3F080B230BD2DE9F041074614
:101D20000D461646384600F070FD002405E0295D9A
:101D300016A000F06AFD601C84B2B442F7DB15A067
:101D400000F063FDBDE8F08110B502460B460020AF
:101D5000002103E0545C0444A0B2491C9942F9DB21
:101D600010BD2DE9F04107460C464FF07E56002588
:101D700005E03146384603F0A9F806466D1CA54239
:101D8000F7DB3046BDE8F0812A09002025303258C3
:101D9000200000000D0A0D0A0000000000F03AF9D2
:101DA0004FF47A7000F07BF94FF4A060FEF794FADC
:101DB0004FF47A711E4800F09BF900F0DBF900F057
:101DC00068FA00F085FA00F0D9FA002000F006FB6E
:101DD00001224FF41651022000F031FB00F040FDCB
:101DE0004FF4FA611348FFF767FF64211248FFF7C9
:101DF00063FF002001F0C5F8042000F0F2F9012291
:101E00004FF4E131104600F01AFB00BF084800F023
:101E1000A4F901F0F1F900F06EFE01F063F9064853
:101E200000F096FA01F096F801F0C2F8EEE7000033
:101E3000170000201F00002027000020704700BF6F
:101E4000FEE700BFFEE700BFFEE700BFFEE770470A
:101E5000704770474C480068401C4B4908604B492C
:101E6000884202D3002048490860704710B540F20C
:101E700024414748FFF7BEFE012827D14448FFF719
:101E800039FE40F224414248FFF7DEFE002141487E
:101E9000FEF785FD4048FEF7B1FD3E48FEF796FD92
:101EA000C0F500703D49A1F802040846B0F80204EC
:101EB000002802DD012081F800044FF4007135484C
:101EC000FEF782FD01213348FEF769FD10BD10B514
:101ED0003348FEF79EFD38B13148FEF7AEFD0021D4
:101EE0002C482830FEF75BFD10BD10B540F22441B0
:101EF0002C48FFF77FFE012828D12A48FFF7FAFD7A
:101F000040F224412748FFF79FFE00212648FEF7B4
:101F100046FD4FF40030FEF771FD2348FEF756FDF5
:101F2000C0F500702149A1F802040846B0F8020487
:101F3000002802DD012081F800044FF400711A48E6
:101F4000FEF742FD01211848FEF729FD10BD10B52E
:101F50004FF40050FEF75DFD40B14FF40050FEF726
:101F60006CFD002110481438FEF719FD10BD10B5A6
:101F70000220FEF74EFD012804D10D490870022011
:101F8000FEF75BFD10BD00002A09002000C87E9A04
:101F9000004C0040300402400002001050000020BD
:101FA0000000021000380140580002405604002092
:101FB0005C0800207CB51D4616460C00009001D040
:101FC0002044401E074B7B442A4669460190304618
:101FD00001F067FB05461CB10020694600F007F8D8
:101FE00028467CBDFF1600007047704770470A689E
:101FF00002F8010B0A60704700487047A8090020EA
:1020000001010001202004062329450001000000F1
:102010000100000010B5FFF7ABF94FF48030FFF777
:10202000CEF9FFF70BFA0446012C37D11020FEF74A
:1020300027FD0020FEF710FD0020FFF772FA0020B8
:10204000FFF781FAA002FFF775FA3020FFF73AFA9E
:10205000E002FFF740FA09212004FFF727FA0120E8
:10206000FFF742FA00BF3B20FFF7CCF90028FAD077
:102070004FF480110811FFF70AFA0120FFF713FA55
:1020800000BF3920FFF7BEF90028FAD00220FFF781
:102090003AFA00BFFFF740FA0828FBD110BD70B52F
:1020A0000346FE480068B0FBF3F1B1F1807F00D336
:1020B0001DE021F07F40401E4FF0E022506150179C
:1020C0000F22002807DA1407260EF54C00F00F0542
:1020D0002D1F665503E01407250EF24C255400BF52
:1020E00000204FF0E02290610720106100BF70BD1A
:1020F00038B504460D4601210420FFF756FB0420A5
:10210000ADF8000010208DF8030002208DF80200C9
:102110006946E548FEF7DEFF0421E348FFF787F84C
:1021200029462046FFF7C8FD38BD10B5DF480078C6
:1021300038B90421DC48FFF77CF80120DB4908703E
:102140000AE0DA480078012806D10421D648FFF7D2
:102150006EF80020D549087010BD10B50446204621
:10216000FFF796FD28B1FFF7E0FF61882046FFF7F3
:10217000A3FD10BD08B501210846FFF716FB01219C
:10218000CB48FFF778F80121CA48FFF774F801211E
:102190000820FFF70AFB0820ADF8000010208DF89A
:1021A000030002208DF802006946C348FEF792FF43
:1021B0000821C148FFF73BF801210820FFF7F5FA95
:1021C0001020ADF800008DF8030002208DF8020009
:1021D0006946B948FEF77EFF1021B748FFF727F898
:1021E00008BD10B50446052C50D2DFE804F03128B4
:1021F0000D04030000BF0821AF48FFF718F81021B5
:10220000AD48FFF716F842E00821AB48FFF70FF89A
:10221000AA48007838B91021A748FFF70AF801202A
:10222000A64908700AE0A5480078012806D11021C7
:10223000A148FEF7FCFF0020A049087027E0082114
:102240009D48FEF7F6FF10219B48FEF7F0FF1EE0C9
:102250009A48007838B908219748FEF7EAFF01202C
:10226000964908700AE095480078012806D10821AF
:102270009148FEF7DCFF00209049087010218E483D
:10228000FEF7D5FF012000F07CFE00E000BF00BF9C
:1022900010BD08B501210420FFF787FA4FF48050E4
:1022A000ADF8000048208DF8030002208DF80200F0
:1022B00069467D48FEF70EFF08BD10B54FF480510A
:1022C0007948FEF79AFF012800D110BD0020FCE7F5
:1022D00008B501210820FFF768FA4FF40060ADF857
:1022E000000010208DF8030002208DF802006946DE
:1022F0007148FEF7EFFE4FF400616F48FEF799FF5B
:1023000008BD10B56E48007840B94FF400616A48C6
:10231000FEF78FFF01206A4908700AE068480078DC
:10232000012806D1C1026448FEF781FF00206449FC
:10233000087010BD10B54FF400615F48FEF777FFDD
:1023400010BD10B54FF400615B48FEF772FF10BD81
:1023500010B504462046FFF79BFC70B15948C07D7C
:1023600028B15848808B6080FFF7CBFF01E0FFF772
:10237000E8FF61882046FFF79FFC10BD08B50121EA
:102380000820FFF712FA01210820FFF70EFA4FF498
:102390000070ADF8000010208DF8030002208DF8C9
:1023A000020069464448FEF795FE4FF48070ADF890
:1023B000000010208DF8030002208DF8020069460D
:1023C0003D48FEF787FE4FF400713B48FEF731FFB2
:1023D0004FF480713848FEF72CFF08BD10B5044655
:1023E00054B94FF400713448FEF723FF4FF4807165
:1023F0003148FEF71EFF21E0012C08D161022E4872
:10240000FEF715FF21022C48FEF713FF16E0022C01
:1024100008D121022848FEF70CFFE1012648FEF70B
:1024200006FF0BE0032C09D14FF400712248FEF7A0
:10243000FEFE4FF480712048FEF7F9FE10BD70B526
:1024400092B006460D461446012E7CD134208DF8FC
:10245000400000208DF8410001208DF842008DF8E9
:10246000430010A8FDF73DFF01210846FFF79DF945
:102470000121C804FFF7A6F901210220FFF788F91E
:1024800001211020FFF791F9B002ADF844001820A7
:102490008DF8470003208DF8460015E03C00002031
:1024A00018ED00E000E400E0000801401400002006
:1024B0000004300000023000000C01401500002034
:1024C000160000202A09002011A9FE48FEF702FE8E
:1024D00001211020FFF769F9F002ADF84400042053
:1024E0008DF8470003208DF8460011A9F548FEF746
:1024F000F1FDF548FFF7BEF90C950020ADF834006A
:10250000012C02D1ADF838000CE0022C04D14FF4BC
:10251000C060ADF8380005E0032C03D14FF48060B3
:10252000ADF838000020ADF83600ADF83C000C20C6
:10253000ADF83A000CA9E448FFF7DFF9012240F2B8
:102540002441E14800E02DE0FFF76FFA012240212D
:10255000DD48FFF78FFA0121DB48FFF75AFADB4825
:10256000FEF750F9D848001D0190D948029000208C
:1025700003904FF400700490002005908020069096
:1025800000200790089009904FF440500A900020D6
:102590000B9001A9CD48FEF7D7F90121CB48FEF7F2
:1025A000FEF997E0022EFCD125208DF84000002096
:1025B0008DF8410001208DF842008DF8430010A8ED
:1025C000FDF78FFE01210846FFF7EFF80121880390
:1025D000FFF7EBF801210846FFF7DAF801210420A4
:1025E000FEF749FE01210820FFF7DFF84020ADF893
:1025F000440018208DF8470003208DF8460011A9EB
:10260000B448FEF767FD01210820FFF7CEF88020CF
:10261000ADF8440004208DF8470003208DF84600F3
:1026200011A9AC48FEF756FDAB48FFF723F90C950E
:102630000020ADF83400012C02D1ADF838000CE0D8
:10264000022C04D14FF4C060ADF8380005E0032C33
:1026500003D14FF48060ADF838000020ADF83600AB
:10266000ADF83C000C20ADF83A000CA99A48FFF7F1
:1026700044F9012240F224419748FFF7D6F901229C
:1026800040219548FFF7F6F901219348FFF7C1F97A
:102690009248FEF7B7F89048001D019090480290CC
:1026A000002003904FF400700490002005908020DB
:1026B000069000200790089009904FF440500A902F
:1026C00000200B9001A98548FEF73EF901218348BF
:1026D000FEF765F912B070BD10B50446012C04D1A7
:1026E0000021C004FFF76EF800E000BF10BD2DE927
:1026F000F04105460E461746012D1DD13A4631469A
:10270000784800F0D1FE00240CE000BF40216E4864
:10271000FFF75AFA0128F9D1315D6B48FFF7E6F966
:10272000601C84B2BC42F0DB00BF40216648FFF76A
:102730004BFA0128F9D11EE0022D1CD13A46314650
:10274000694800F0B1FE00240CE000BF402162485F
:10275000FFF73AFA0128F9D1315D5F48FFF7C6F972
:10276000601C84B2BC42F0DB00BF40215A48FFF736
:102770002BFA0128F9D1BDE8F08170B504460E4668
:102780001546012C14D1524890F80004012826D196
:102790004F48B0F802240146304600F085FE4C4810
:1027A000B0F8020428800020494981F8000470BD77
:1027B000022C14D14A4890F8000401280FD148484F
:1027C000B0F802240146304600F06EFE4448B0F8EE
:1027D000020428800020424981F80004E7E74FF016
:1027E000FF30E4E710B5ADF5027D044601AA02A969
:1027F0002046FFF7C2FF28B9BDF8042002A92046F1
:10280000FFF775FF0DF5027D10BD0FB410B5ADF5E6
:10281000027D002485A801904FF4007102A8019B5D
:10282000849AFFF7C7FB0DE000BF40212648FFF761
:10283000CBF90128F9D102A8015D2348FFF756F929
:10284000601C84B2B4F5FF7F03D802A8005D0028A5
:10285000EAD1002001900DF5027D10BC5DF814FB5B
:1028600000B593B001214802FEF79FFF4FF44040AE
:10287000FEF784FE0B208DF8440000208DF8450003
:102880008DF8460001208DF8470011A8FDF729FDBD
:1028900001210420FEF789FF0220ADF84800002046
:1028A0008DF84B0003208DF84A0012A90F48FEF75F
:1028B00011FC01210420FEF778FF1020ADF848003C
:1028C000002015E000100140004C004030040240A0
:1028D00050000020000C0140003801405800024028
:1028E0005604002050020020560600200008014037
:1028F0008DF84B0003208DF84A0012A9FC48FEF722
:10290000E9FB01210420FEF750FF2020ADF848002C
:1029100000208DF84B0003208DF84A0012A9F448DE
:10292000FEF7D8FB01210420FEF73FFF4020ADF861
:10293000480000208DF84B0003208DF84A0012A9B2
:10294000EB48FEF7C7FB01210420FEF72EFF802095
:10295000ADF8480000208DF84B0003208DF84A00A8
:1029600012A9E348FEF7B6FB01210846FEF710FF67
:10297000E048FDF747FFE0480190E0480290002062
:1029800003900620049000200590802006904000CF
:10299000079080000890002009904FF400500A90A2
:1029A00000200B9001A9D348FDF7CEFF0220FEF7CF
:1029B00044F801220221CF48FDF7FDFF0121CD4857
:1029C000FDF7EDFF01208DF8340000208DF8350073
:1029D0000F904FF460200E9000200C9006208DF890
:1029E00040000CA9C4484C38FDF70BFD0723012219
:1029F0001021C1484C38FDF79CFD0723022201211C
:102A0000BD484C38FDF795FD072303220421BA4841
:102A10004C38FDF78EFD072304220521B6484C38BB
:102A2000FDF787FD072305220621B3484C38FDF743
:102A300080FD072306221946AF484C38FDF779FD83
:102A40000120FDF79BFE0121AB484C38FDF710FD3E
:102A50000121A9484C38FDF700FDA7484C38FDF787
:102A60001EFD00BFA4484C38FDF71EFD0028F9D11B
:102A7000A1484C38FDF722FD00BF9F484C38FDF7B8
:102A800022FD0028F9D101219B484C38FDF725FD96
:102A900013B000BD00B58BB000219648FDF77FFF55
:102AA00095480090954801900020029006200390E0
:102AB0000020049080200590400006908000079040
:102AC000002008904FF40050099000200A906946B9
:102AD0008848FDF739FF012202218648FDF76BFF88
:102AE00001218448FDF75BFF012183484C38FDF745
:102AF000F4FC0BB000BD2DE9FC418048801E00783D
:102B000001287DD1002410E0C4EB04137B4A0C3271
:102B100002EB43010C3A32F814000F22FFF7E4F8FD
:102B20007649C03121F81400641C062CECDB734993
:102B3000891EB1F8C20002F081F90646704902F020
:102B4000C5F905466F4902F0B7F86F498860084635
:102B500081686E4802F0B8FA06466D4902F0ACF89A
:102B600005466C4902F03AF8674988606349891E56
:102B7000B1F8C40002F062F98046614902F0A6F99A
:102B80000746604902F098F80646634902F09EF94C
:102B90000546624902F090F85B49C8605749891EB2
:102BA000C88802F04BF906465D480168304602F0DD
:102BB0008DF905465A484168284602F00FF85849F1
:102BC00088604E49891E088902F038F90646544843
:102BD0000169304602F07AF90546514841692846B4
:102BE00001F0FCFF4E4988614449891E488902F082
:102BF00025F906464A48016A304602F067F900E0C6
:102C000044E005464648416A284601F0E7FF44494A
:102C100088623A49891E888902F010F906464048C0
:102C2000016B304602F052F905463D48416B28469B
:102C300001F0D4FF3A498863002400E0641C39485D
:102C40008442FBDB3049886801F09CFF05460E4654
:102C50002D49C86801F096FF07463A460B4632A058
:102C6000CDE90056FFF7D1FD2448801E80890090F1
:102C70002248801E43890289C18832A0FFF7C5FD22
:102C8000FFF708FF00201D49891E0870BDE8FC8180
:102C900071B600BF3448006800F4E060334908436F
:102CA000001D31490860BFF34F8F00BF00BFFEE732
:102CB00030BF704772B6704762B6704700BF00BF42
:102CC00000BF00BF00BF00BF00BF00BF704700B51E
:102CD00007E0FFF7F3FFFFF7F1FFFFF7EFFFFFF765
:102CE000EDFF011EA0F1010290B2F2D100BD000083
:102CF00000080140080002404C2401405E0800200A
:102D00003333534000F07F452A0900203D0AB73F86
:102D100004E78C3B0000C8410000A04100002041B6
:102D200048090020A0860100766F6C743A20256661
:102D300020562C2074656D703A20256620A1E62C63
:102D4000200000004F323A2025642C20434F3A20C7
:102D500025642C204832533A2025642C204C454CC5
:102D60003A2025642E0D0A000CED00E00000FA0563
:102D700000B5034603E04FF47A70FFF7A8FF181E72
:102D8000A3F101018BB2F6D100BD000030B591B0C6
:102D90000024002568222146641C01A84254012217
:102DA0002146641C425480222146641C4254002265
:102DB0002146641C4254FB48827D2146641C01A8C4
:102DC00042546D1CF748027E2146641C01A84254FF
:102DD000F448008BC0F307222146641C01A842542A
:102DE000F0488069C0F307422146641C01A84254A0
:102DF000ED1CEC488069401CEA4988610846C068BF
:102E000000909DF800202146641C01A842549DF8C2
:102E100001202146641C42549DF802202146641C76
:102E200042549DF803202146641C42542D1DDE4867
:102E3000806800909DF800202146641C01A842543F
:102E40009DF801202146641C42549DF80220214631
:102E5000641C42549DF803202046611C8CB201A9D9
:102E60000A542D1DD048806900909DF8002020460E
:102E7000611C8CB201A90A549DF801202046611CF6
:102E80008CB201A90A549DF802202046611C8CB224
:102E900001A90A549DF803202046611C8CB201A9A7
:102EA0000A542D1DC048806A00909DF800202046DD
:102EB000611C8CB201A90A549DF801202046611CB6
:102EC0008CB201A90A549DF802202046611C8CB2E4
:102ED00001A90A549DF803202046611C8CB201A967
:102EE0000A542D1DB048806B00909DF800202046AC
:102EF000611C8CB201A90A549DF801202046611C76
:102F00008CB201A90A549DF802202046611C8CB2A3
:102F100001A90A549DF803202046611C8CB201A926
:102F20000A542D1D8DF80750294602A8FEF70CFF04
:102F3000C2B22046611C8CB201A90A541622204656
:102F4000611C8CB201A90A5422460220FFF7CFFB74
:102F500011B030BD10B59348006842F2107188423C
:102F600000D210BD9148FEF793FE40B1FFF70EFF6F
:102F70008E48FEF786FE8D484188FEF79DFE00BF15
:102F8000EFE728B90021874AD175C82191830EE067
:102F9000012805D10121834AD175FA21918306E0E8
:102FA000022804D101217F4AD175642191837047A1
:102FB00010B57C48006842F21071884200D210BD02
:102FC0007B48FEF765FE00B9F9E779484188FEF7CE
:102FD00073FE75498868774901F044FF03D80120E2
:102FE0007149C8600CE070498868734902F03AF88A
:102FF00003D802206C49C86002E000206A49C8601A
:10300000694988696D4902F02DF803D802216648A4
:10301000C1610CE064498869664902F023F803D86D
:1030200001216148C16102E000215F48C1615E4940
:10303000886A634902F016F803D802215A48C1622F
:103040000CE05949886A5F4902F00CF803D8012165
:103050005548C16202E000215348C1625249886B61
:10306000594901F0FFFF03D802214F48C1630CE02A
:103070004D49886B554901F0F5FF03D801214A48B5
:10308000C16302E000214848C1634748C068022884
:103090000BD04548C069022807D04348C06A0228BF
:1030A00003D04148C06B022803D10220FFF769FF1B
:1030B00016E03D48C06801280BD03B48C069012894
:1030C00007D03948C06A012803D03748C06B0128AF
:1030D00003D10120FFF755FF02E00020FFF751FF69
:1030E00000BF6CE710B52F480068B0F57A7F00D2BA
:1030F00010BD3748007838B94FF47A713548FEF77B
:10310000DBFD0120324908703248FEF7C1FD00287E
:1031100045D02449C868304901F0A4FF06D82F489B
:10312000204908610420FFF75CF831E01D49C868B8
:103130002B4901F097FF06D82A481A490861032055
:10314000FFF74FF824E01749C868274901F08AFFC4
:1031500006D81D48134908610220FFF742F817E01E
:103160001049C868214901F07DFF06D820480D4963
:1031700008610120FFF735F80AE00A49C8681D49CF
:1031800001F070FF04D8002006490861FFF729F814
:103190001048FEF776FD0F484188FEF78DFD00BF11
:1031A000A6E700002A090020480900201F0000208F
:1031B0002700002000009C410000B841000020438F
:1031C0000000A0410000C040000048420000204133
:1031D000370000202F000020666686400000C842AD
:1031E0009A997940000096426666664033335340B0
:1031F0000000C8410000404010B5FFF75EF80949E3
:1032000008700846007858B90748007840B901228C
:103210004FF4E1311046FFF712F90120024908701E
:1032200010BD000039000020380000200CB500203F
:10323000019000909048006840F480308E4908600A
:1032400000BF8D48006800F4003000900198401CD9
:103250000190009818B90198B0F5A06FF1D1864897
:10326000006800F4003010B10120009001E000205F
:1032700000900098012858D18048006840F0100064
:103280007E4908600846006820F003000860084690
:103290000068086078484068774948600846406898
:1032A00048600846406848600846406820F47C1042
:1032B00048600846406840F4881048600846C06A84
:1032C0006F4908406C49C8620846C06A6D490843A6
:1032D0006949C8620846006840F08060086000BF25
:1032E0006548006800F000600028F9D06248006876
:1032F00040F080706049086000BF5F48006800F0DF
:1033000000700028F9D05C48406820F003005A495A
:1033100048600846406840F00200486000BF5648D8
:10332000406800F00C000828F9D10CBD10B5FFF77B
:103330007DFF10BD10B55048006840F001004E49B7
:10334000086008464068504908404B4948600846B4
:1033500000684E490840484908600846006820F463
:10336000802008600846406820F4FE004860084657
:10337000006820F0A05008604FF47F0088600020B3
:10338000C862FFF7D3FF4FF000604149086010BDED
:10339000F0B5002100200023002400220025002693
:1033A000354F7F6807F00C0121B1042908D00829A6
:1033B0004BD10BE0374FDFF8E0C0CCF800704AE0AB
:1033C000364FDFF8D4C0CCF8007044E02A4F7F6855
:1033D00007F47010284F7F6807F48033800C0D28A5
:1033E00001D0801C00E0062033B92D4F4743DFF8A1
:1033F000A8C0CCF8007027E01F4FFF6A07F48034A4
:103400001D4FFF6A07F00F077A1C44B9234FB7FB23
:10341000F2F74743DFF880C0CCF8007014E0164F95
:10342000FF6AC7F303177D1C134FFF6AC7F3032717
:10343000BE1C1A4FB7FBF5F77743B7FBF2F74743CC
:10344000DFF854C0CCF8007005E0124FDFF848C038
:10345000CCF8007000BF00BF074F7F68C7F30317A9
:10346000DFF840C01CF807100B4F3F68CF40DFF873
:1034700028C0CCF80070F0BD0010024000200240CF
:1034800000F0FEFF490601000000FFF0FFFFF6FE1E
:1034900008ED00E000127A003C0000200024F40057
:1034A00000093D0040000020032A40F2308010F067
:1034B000030C00F0158011F8013BBCF1020F6244CF
:1034C00098BF11F801CB00F8013B38BF11F8013B60
:1034D000A2F1040298BF00F801CB38BF00F8013B0D
:1034E00011F0030300F0DA82083AC0F0088051F8C6
:1034F000043B083A51F804CBA0E80810F5E7121D88
:103500005CBF51F8043B40F8043BAFF30080D207A6
:1035100024BF11F8013B11F801CB48BF11F8012B72
:1035200024BF00F8013B00F801CB48BF00F8012B95
:10353000704770B5044685690068C10601D530261C
:1035400000E02026C00707D070BDD4E90121304635
:103550009047206A401C20626D1EF6D570BD70B584
:10356000044685690078C00707D170BDD4E9012100
:1035700020209047206A401C20626D1EF6D570BD49
:1035800009684A0501D540B27047C905FCD500B2AB
:10359000704709684A0501D5C0B27047C905FCD516
:1035A00080B2704770B50C460546012A05D02878D0
:1035B000800600D5EA69002302E0012305E05B1CD8
:1035C000934202D2E05C0028F9D1A869E618C01A3B
:1035D000A861286A184428622846FFF7AAFF04E079
:1035E000D5E9012114F8010B9047B442F8D32846DD
:1035F000FFF7B5FF70BD00002DE9F041064600243D
:1036000010687529314616A510D0FFF7B9FF0028BC
:1036100002DA404213A507E031688A0701D512A5F6
:1036200002E0490704D511A5012401E0FFF7B1FF2D
:1036300000210A2206F1240709E0B0FBF2FCB0FBEE
:10364000F2F302FB1C00303078541846491C002865
:10365000F3D123462A463046BDE8F04100F095BA42
:10366000000000002D0000002B00000020000000E2
:1036700011680268006A530501D508700AE0D30595
:1036800001D5088006E0130603D5C217C1E9000280
:1036900000E008600120704701694A1C0261087857
:1036A000704700B58FB0CDE9013100210591054982
:1036B0007944CDE903101146684600F02BF90FB0AC
:1036C00000BD0000E5FFFFFFD1E900239A4202D2CE
:1036D000531C0B60107070472DE9FF5F15468A463A
:1036E0000446DFF8AC80F8440027D8E900103E46D5
:1036F000CDE9001010E03AF816106A4602A800F072
:10370000D8FC411C07D02178890603D5E269391815
:1037100091420DD80744761C2078800602D5E069D6
:10372000B84205DDAE42E6DB3AF816000028E2D1E9
:10373000A069C01BA0612046FFF7FBFED8E900107E
:10374000CDE90010002017E03AF818106A4602A8E8
:1037500000F0AFFCB0F1FF3F81460BD000250DF12A
:10376000080B05E0D4E901211BF8050090476D1C0A
:103770004D45F7D308F10100B0428046E4DB206AF2
:10378000384420622046FFF7EAFEBDE8FF9F0000B4
:10379000CE1A00002DE9F0418046D21D22F007022A
:1037A0000025D2E90002F52915A614D0011E72F1F8
:1037B000000106DA0023D0EB030063EB020211A63E
:1037C00008E0D8F800108B0701D50FA602E04907E2
:1037D00001D50EA601251146002408F1240704E0B6
:1037E00000F08EF930323A55641C50EA0102F7D1EC
:1037F0002B46324621464046BDE8F04100F0C5B9AF
:10380000000000002D0000002B0000002000000040
:1038100030B4002100F1240408E002F00705D208CA
:10382000303542EA4372DB086554491C52EA03050D
:10383000F3D10468002310A2250707D5A40600D4FD
:1038400021B1C46901230DA2641EC46130BC00F023
:103850009CB910B5044621461068FFF79AFE02464F
:103860002046BDE810400023D2E7D21D22F0070118
:10387000D1E90023CCE70000000000003000000088
:10388000F0B40D460188090502D5214C7C4402E0C4
:103890001F4C7C440E34002100F1240608E002F0A5
:1038A0000F071209E75D42EA03721B097754491CAE
:1038B00052EA0307F3D102780023120704D5702DD2
:1038C00006D009B1022311342246F0BC00F05DB9E4
:1038D00001231034F8E770B504460D462146106800
:1038E000FFF757FE024629462046BDE870400023F8
:1038F000C6E7D21D22F00703D3E90023C0E703681F
:10390000126843F0200303600823C3610023B7E774
:10391000301900002DE9F05F894604464FF0000A97
:10392000DFF874B1FB44C0F820A02046E168884766
:10393000002874D0252806D0D4E901219047206AB8
:10394000401C2062F1E700265F462046E168884778
:103950002028054607DB312D05D2781910F8200CF8
:1039600008B10643F1E7B00701D526F00406C4F814
:103970001CA00027C4F818A02A2D09D0284601F061
:10398000C8F838B304EB8708303DC8F8185019E080
:1039900059F8041B204604EB87029161E1688847CF
:1039A000012F054618D1E069002820DA26F020060C
:1039B0001DE0D8F8180000EB800005EB400030381F
:1039C000C8F818002046E1688847054601F0A1F8CC
:1039D0000028EED1012F0AD02E2D08D12046E16813
:1039E00088477F1C0546022F46F02006C4DBA069ED
:1039F000002803DA404246F00106A061F00701D03A
:103A000026F010066C2D0BD0682D09D04C2D39D026
:103A10006A2D35D0742D35D07A2D33D016E038E0AC
:103A2000E1682F4620468847B842054609D16C2FE9
:103A300026D04FF48060E16806432046884705465B
:103A400004E06C2F1AD04FF4807006430DB3A5F13B
:103A50004100192802D8203546F400664A46294616
:103A6000204626604E46FCF7ADFB80B101280BD006
:103A7000F61D26F0070000F1080956E74020E4E7AC
:103A80008020D8E70020D6E706F104094DE7284654
:103A900052E7206ABDE8F09FC018000010B5203A38
:103AA000C0F00B80B1E81850203AA0E81850B1E8F7
:103AB0001850A0E81850BFF4F5AF5FEA027C24BFAD
:103AC000B1E81850A0E8185044BF18C918C0BDE8A4
:103AD00010405FEA827C24BF51F8043B40F8043B6D
:103AE00008BF7047D20728BF31F8023B48BF11F822
:103AF000012B28BF20F8023B48BF00F8012B70477C
:103B000030B5B0F10A024FEA900E71F100034EEAAF
:103B1000817EB0EB0E0061EB91014FEA101E4EEA80
:103B2000017E10EB0E0041EB11114FEA102E4EEA10
:103B3000016E10EB0E0041EB11214FEA104E4EEAE0
:103B4000014E10EB0E0041EB1141401841F1000114
:103B50004FEAD00040EA41704FEAD10110EB8005F6
:103B60004FEA810444EA907444EB01046D1944EB7C
:103B70000404521BA3414FF0000348BF0A3200D592
:103B800030BD401C41F1000130BD2DE9F0470D462C
:103B900099469246044600F124080168880604D537
:103BA000E06921F01001216000E00120A84201DD60
:103BB000471B00E00027A1697A1902EB0900081AE7
:103BC000A0612078C00602D42046FFF7B2FC002690
:103BD00008E0D4E901211AF806009047206A401C49
:103BE000761C20624E45F4DB2078C0060AD52046BC
:103BF000FFF79FFC06E0D4E9012130209047206ABE
:103C0000401C2062381EA7F10107F4DC07E0D4E96C
:103C1000012118F805009047206A401C2062281EE8
:103C2000A5F10105F3DC2046FFF799FC207800069A
:103C300002D50220BDE8F0870120FBE770472DE99F
:103C4000FF4F0C461E464FF0FF378BB0D2E9000104
:103C5000DDF860800A908A46C1F30A5505B93D46F1
:103C6000002108464FF00000BAF1000F00F44000B8
:103C700005DA00EB80004FF4400101EA50004FEA02
:103C80009059B9F1010F00DDB9460A9850EA4A008F
:103C90000ED044F61050A5F2FF3545432F14B8F16D
:103CA000000F1ED07542291E1EDDC9F100021CE066
:103CB000B8F1010F4FF0000001D0302103E0F243D2
:103CC00005E02154401CB042FBDB304600220021BD
:103CD00021540B99C1F80880C1E900200FB0BDE85C
:103CE000F08FBD1B6D1CDEE74A4600DA694206A86C
:103CF00000F06CFA06AB93E8070003AB83E807001B
:103D000050460A9900F029FB8DE80700A0F5005005
:103D10001F3800900398002D0ADD42F21F014A4629
:103D20000844002303A90390684600F092FD09E0CF
:103D3000A0F500504A461F38002303A903906846A7
:103D400000F09CFD8DE807000004000C03D04FF04C
:103D5000FF30410800E01046B8F1000F03D0002208
:103D6000009215461EE0751E05D4FFF7C9FE3032DD
:103D700062556D1EF9D5B3460122084302D00022D8
:103D80007F1C04E02078302801D100227F1E002A09
:103D9000099784D01DE0112D07DAFFF7B1FE30320C
:103DA00062556D1C50EA0102F5D1084302D000981B
:103DB000C8B10EE00021681E05E0235C625C63541C
:103DC0002254401E491C8142F7DBAB46A81B401E13
:103DD0000990002004F80B000B98099AC0F808809D
:103DE000C0E9002B7AE711264FF0000857E72DE9CC
:103DF000F04F88460446D21D22F0070191B0D1E968
:103E00000001CDE90A0100F070FE02460B98C00FD8
:103E100001D02D2007E02068810701D52B2002E08A
:103E2000202101EAC000032A099001D0072A05DBFE
:103E300003464146204600F089F90BE120788006D0
:103E400001D5E06900E00620B8F1650F814606D093
:103E5000B8F1660F18D0B8F1670F70D131E00020CB
:103E6000B9F1110F009001DB112301E009F1010309
:103E70000AAA01A90CA8FFF7E2FEDDE90C700026F2
:103E800009F10105834647E001204B4600904FF0C1
:103E900000470AAA01A90CA8FFF7D1FEDDE90DB081
:103EA0000C995D46002610B909F101000D18B9EB17
:103EB000050003D4C0F1FF3609F10105A5EB0900A7
:103EC0002BE0B9F1010F01DA4FF001090020B9F13F
:103ED000110F0090484601DD112300E003460AAAB5
:103EE00001A90CA8FFF7ABFEDDE90C704D460026DA
:103EF0008346207800070AD4AB4500DA5D4601A866
:103F0000012D04DD411911F8011C302907D04F455E
:103F100002DA17F1040F04DA012082460FE06D1E69
:103F2000EEE7002F02DCED1B3E4403E0781CA842C4
:103F300000DD7D1CB81B00F1010A4FF0004720781E
:103F4000000703D4AA4501DB4FF0FF3A0021B7F187
:103F5000004F0DF143088DF8431024D002202B238D
:103F6000002F01DA7F422D230A21021EA0F1010059
:103F700000DC5FB197FBF1FC97FBF1F201FB1C7CCD
:103F800017460CF1300C08F801CDEEE7A8F101005E
:103F900003702188090501D5452100E06521A0F1C4
:103FA000010800F8011C09980FA9A1EB0807FF1DE3
:103FB00000B10120411901EBEA70A1693844081AE7
:103FC000401EA0612078C00602D42046FFF7B1FA57
:103FD000099828B1D4E901219047206A401C206249
:103FE0002078C00622D52046FFF7A3FA1EE0002E57
:103FF00004DBB34502DD01A8805D00E03020D4E998
:1040000001219047206A401C2062761CAAF1010021
:104010005FEA000A0AD1FDF7EFFFC0680168405C63
:10402000D4E901219047206A401C2062281EA5F196
:104030000105DCDC07E0D4E9012118F8010B904709
:10404000206A401C2062381EA7F10107F3DC2046DD
:10405000FFF785FA032011B041E610B5436913B1AB
:10406000AFF3008001E0FFF79DFA012010BD127848
:1040700000F124010A7000224A700122EDE7116864
:104080004FF0FF32E9E710B5436913B1AFF3008099
:1040900001E0FFF721FB012010BD128800F124018F
:1040A00082840022C2840122EDE711684FF0FF32C2
:1040B000E9E770B516460C46054600F03FF8036880
:1040C00093F80101012806D0FF2C0FD8185D68B1C4
:1040D00001202C7070BDD3F807013246214603F24F
:1040E000071303442846BDE8704018474FF0FF30DF
:1040F00070BD754600F0E6F8AE46050069465346C9
:1041000020F00700854618B020B5FCF7D3F8BDE8CD
:1041100020404FF000064FF000074FF000084FF02E
:10412000000B21F00701AC46ACE8C009ACE8C009BF
:10413000ACE8C009ACE8C0098D46704710B5FDF782
:104140005BFF001D10BD00BF050A00002DE9F04116
:104150001F46044603260168072A01F4006004DBB9
:1041600008B116A505E016A503E008B115A500E005
:1041700015A521F010002060A069C01EA0610FB13C
:10418000401EA0612046FFF7D4F94FB1D4E90121C8
:1041900038469047206A401C2062C01C206206E01E
:1041A000206AFAE7D4E9012115F8010B9047761E41
:1041B000F8D22046FFF7D3F9BDE8F0814E414E001A
:1041C0006E616E00494E4600696E66002DE9F0474B
:1041D000814616468AB0354878440DC88DE80D00F2
:1041E00032487844801C03AC0DC884E80D0041F6C9
:1041F0009B300844372190FBF1F290FBF1F5A5F1DB
:10420000800501FB12041B3C02D56442012000E042
:104210000020DFF898A080460027FA44AAF1BE0AE1
:104220000EE0E0070AD03246684607EB470101235B
:104230000AEB810100F022FB8DE8070064107F1C6F
:10424000002CEED1194F7F44AE3F19E0E80715D09E
:1042500007EB04100DF1180A90E80E008AE80E0032
:10426000C068F04201D1981908903246012306A98E
:1042700003A800F003FB03AB83E807006D10641C88
:10428000002DE3D14FF0010332466946B8F1000F2B
:1042900003A802D000F0DDFA01E000F0EFFAC9E96E
:1042A0000001C9F808200AB0BDE8F0879C100000A2
:1042B00010B50446AFF300802046BDE81040FBF780
:1042C000E4BF000000487047880900204FF0013C1F
:1042D00050F8042B51F8043B9A4221D1A2EB0C0375
:1042E000934313EACC1317D150F8042B51F8043B35
:1042F0009A4215D1A2EB0C03934313EACC130BD1D2
:1043000050F8042B51F8043B9A4209D1A2EB0C035C
:10431000934313EACC13DBD04FF00000704700BF8B
:10432000D01A01BAB1FA81F101F0180122FA01F0B4
:10433000CB40C1F12001DBB2C0B2C01A2CFA01F3AC
:10434000D11A914311EAC311E6D1704701491820EF
:10435000ABBEFEE72600020070475FEA400C08BFD4
:1043600091F0000F4FEA8C234FEAC12243EA5151EA
:104370004FEA1C5018BF00F5F0404FEA300018BF5C
:1043800041F000415FEA6C5C00F02980BCF1FF3F26
:1043900008BF40F080407047130C06BF12044FF076
:1043A000100C4FF0000C130E04BF12020CF1080C9D
:1043B000130F04BF12010CF1040C930F04BF920001
:1043C0000CF1020CD30F04BF52000CF1010C11468A
:1043D0004FF00002A0F11F00A0EB0C00704711F09D
:1043E000004F08BF704731F000413FF4D5AF0B0CD0
:1043F00006BF09044FF0100C4FF0000C0B0E04BF69
:1044000009020CF1080C0B0F04BF09010CF1040C9C
:104410008B0F04BF89000CF1020CCB0F04BF4900C5
:104420000CF1010CCCF12003A0EB0C0022FA03F3F9
:1044300002FA0CF241EA030100F10100704720F09A
:104440007F4C80EA030023F07F47ACEB070303F5C2
:104450007C5300F0004003F1FF032DE980494FEA4F
:10446000154B09B44FEA144325EA0B4E24EA0348DE
:104470000FF2042606EB132749083E785FEA320262
:1044800003FB0667C7F5000707FB06F64FEA54373C
:104490004FEAD64606F1020607FB066CCCF1005C3B
:1044A0004FEA1C472CEA074C07FB06F40CFB06F509
:1044B00004EB15464FEA961634BF00204FF000403B
:1044C0004FEAD13706FB07FC4FEA1C4C0CFB0BF7FD
:1044D000D21B03FB0CF761EB07010CFB0EF7B0EBF3
:1044E000074072EB17420CFB08F734BFA2EB074200
:1044F000B2EB074261EB17414FEA0C444FEA9107D8
:1045000006FB07FC4FEA1C4C0CFB0BF7B0EBC7405B
:1045100072EB573203FB0CF734BFA2EBC742B2EB8E
:10452000C74261EB57310CFB0EF7B0EBC70072EBE3
:1045300057720CFB08F734BFA2EBC702B2EBC702FD
:1045400061EB5771039F4FEA816141EA921104EBDD
:10455000CC044FEAD1374FEA826206FB07FC42EAFD
:1045600090124FEA80604FEA1C4C0CFB0BF7D21BF9
:1045700003FB0CF761EB07010CFB0EF7B0EB0740F8
:1045800072EB17420CFB08F734BFA2EB0742B2EB09
:10459000074261EB17414FEA8C554FEA910704EB54
:1045A0009C2406FB07FC4FEA1C4C0CFB0BF7B0EB02
:1045B000C74072EB573203FB0CF734BFA2EBC74284
:1045C000B2EBC74261EB57310CFB0EF7B0EBC70003
:1045D00072EB57720CFB08F734BFA2EBC702B2EBC9
:1045E000C70261EB577115EB4C254FEA816141EA37
:1045F00092114FEA82624FEAD13742EA901206FBEB
:1046000007FC44F100044FEA80604FEA1C4C0CFBAD
:104610000BF7D21B03FB0CF761EB07010CFB0EF74A
:10462000B0EB074072EB17420CFB08F734BFA2EB6C
:104630000742B2EB074261EB174115EB1C154FEA3D
:10464000813141EA92414FEA823242EA90424FEA96
:1046500080304FEA0C7644F1000448EA03434EEA06
:104660000B484FF0000EB2EB080C71EB030724BFB0
:10467000624639464EEB0E0E4FF0000B00185241C9
:1046800049414BEB0B0BB2EB080C71EB03077BF1D1
:10469000000B24BF624639464EEB0E0E4FF0000B66
:1046A0000018524149414BEB0B0BB2EB080C71EB7C
:1046B00003077BF1000B24BF624639464EEB0E0E1A
:1046C00051EA020718BF46F0010616EB0E7655F1C7
:1046D000000254F1000103D5BDE88901BDE800885E
:1046E000BDE88901BDE80048B619524141EB01011E
:1046F000A3F10103704780807F7E7D7C7B7A79788F
:10470000777676757473727171706F6E6E6D6C6C96
:104710006B6A6A6968686766666564646363626138
:104720006160605F5F5E5E5D5D5C5C5B5B5A5A59B9
:104730005958585757565655555554545353525225
:104740005251515050504F4F4F4E4E4D4D4D4C4C7D
:104750004C4B4B4B4A4A4A494949484848474747C6
:104760004746464645454544444444434343434203
:10477000424242414141002B9C4630D477002BD02D
:104780001CB54FEA370703B44FF010004FF010018B
:10479000BAF1000F06D0BCF1000FDCBF40F00800FA
:1047A00040F008014FF000000FBCBDE810400BF1D5
:1047B000010BBBF1010F08BF5FEA170722BF12F11F
:1047C000010211F101014FF0004143F1000300F03B
:1047D000004043EA00007047F9D35708D0E746EAA3
:1047E000064613F1400F4FEA16461FDD13F1200F66
:1047F000DFBF16430A46002120335B42BED0C3F11F
:10480000200746EA064602FA07F74FEA164646EA46
:104810000706C3F1200722FA03F201FA07F721FA8B
:1048200003F14FF0000342EA0702A7E746EA020657
:1048300046EA06464FEA164646EA0106BCBF46EA85
:104840000646360C4FF000034FF000024FF0000117
:1048500094E72DE9804C9A46934670B491E838006D
:1048600007C831EA400C48BF34EA430C03D5FFF7D0
:10487000E6FDFFF780FFF0BCBDE8008C2DE9804C21
:104880009A46934670B491E8380007C810F0804FFC
:1048900008BF13F0804F03D100F005F8FFF76BFF5E
:1048A000F0BCBDE8008C20F07F4780EA030023F0D5
:1048B0007F4C07EB0C03A3F57C5300F00040A3F101
:1048C000FE0392F0000F00F0B38095F0000F00F0AF
:1048D00077802DE901494FEA11404FEA144621EA59
:1048E000004800FB06FC24EA064708FB06F607FB27
:1048F00008F800FB07F718EB06484CEB164C4FEA9C
:10490000124B18EB07484FEA15464CEB174022EACA
:104910000B4E0BFB06FC25EA06470EFB06F607FBD3
:104920000EFE0BFB07F71EEB064E4CEB164C4FF042
:1049300000061EEB074E4CEB174B18EB0B0840F133
:10494000000018EB0E0B58EB000840F100008F1A26
:104950004FF000013CBFC943661B14BFB5EB040C0C
:1049600000213CBFC943F61B4FEA17444EEA8E0EA6
:1049700027EA04454FEA1C4704FB07622CEA074C70
:1049800005FB07F70CFB05F604FB0CFC16EB0746D2
:1049900042EB174216EB0C4642EB1C421BEB0606A1
:1049A00058EB0202414146EA9E0601D5BDE8018965
:1049B000B619524141EB0101A3F10103BDE80189A0
:1049C0004FEA14454FEA114724EA054621EA074C0D
:1049D00005FB07F406FB07F70CFB06F105FB0CFCD7
:1049E00011EB074144EB17444FEA124711EB0C411E
:1049F00044EB1C4422EA074C05FB07F206FB07F7D1
:104A00000CFB06F605FB0CFC16EB074642EB1742C7
:104A100016EB0C4642EB1C456A1854F1000148BFE6
:104A20007047B619524141EB0101A3F101037047F0
:104A300095F0000F37D04FEA11424FEA144721EAB0
:104A4000024624EA074C02FB07F106FB07F70CFBC2
:104A500006F402FB0CFC14EB074441EB17414FEA50
:104A6000154714EB0C4441EB1C4125EA074C02FBB3
:104A700007F506FB07F70CFB06F602FB0CFC16EB32
:104A8000074645EB174516EB0C4645EB1C42121941
:104A900051F1000148BF7047B619524141EB010185
:104AA000A3F1010370474FEA14454FEA114724EA86
:104AB000054621EA074C05FB07F106FB07F70CFB4F
:104AC00006F24FF0000605FB0CFC12EB074241EB2F
:104AD000174112EB0C4251EB1C4148BF7047921832
:104AE00041EB0101A3F101037047490050EAC120E5
:104AF00018BF04204A0D18BF40F0010040F2FF72B9
:104B0000B2EB515F08BF40F00200012808BF05204A
:104B1000704730380A2801D20120704700207047C2
:104B200010B500290AD00878002807D00548784435
:104B3000FFF7CCFB002801D0002010BD02487844CC
:104B400010BD0000820700007A07000010B50029A0
:104B50000AD00878002807D005487844FFF7B6FB4C
:104B6000002801D0002010BD0248784410BD00008C
:104B7000720700006A0700000808A0F500114FEA5C
:104B80003101704743004FEAD30C4FEA3C0C4340DD
:104B90001FBF40070CF1605113F0FE4F70471CF02F
:104BA000006F03D100200CF0004170470CF000436F
:104BB00043EA507010B540EACC0000F008FA00BF9C
:104BC000000000924FEA0001FFF7D6BF4FF000410E
:104BD0004FF00000A1F500217047000090EA010F9E
:104BE00048BF81F0004100F17682421A3CBF801A32
:104BF00089184FEAD0524FF07F4C1CEA410FA2EBCC
:104C0000D15318BF9CEA026F00F03B804FF0004C7C
:104C10004CEA00204CEA012121FA03FC10EB0C0CB9
:104C20001ED202F1FF325FEA1C2040EBC25038BFB7
:104C300070471CF07F0F4FEA400C18BFBCF17F4F4C
:104C400038BF7047C3F12003994008BF20F001002E
:104C5000BCF17F4F38BF7047A0F1C04000F0FDB9F4
:104C60004FEA3C00000A40EBC25028BF1CF0FF0F87
:104C70004FEA400CE6D018BFBCF17F4F38BF7047F9
:104C8000EAE79CEA026F05D010EA5C0F08BF00F06B
:104C90000040704710B500F09AF900BF64FBBE3EBB
:104CA000401058BFC0F14040491058BFC1F14041C9
:104CB0008142EFF3008070474FF47F0C1CEAD01262
:104CC0001EBF1CEAD11392EA0C0F93EA0C0F00F0FE
:104CD000858090EA010F48BF42F4807240F4000CD6
:104CE00041F400002CF07F4120F07F4000B581426C
:104CF000A2EB03020FF2081CACEB504EC0F1000017
:104D00009EF800E04FEA4E0E00FB0EFC38BF490053
:104D10004FEA2C1C02F5FA020CFB0EF34FEACE1EF2
:104D20004FEA112C4FEAC1210EEB635E42EB2242A7
:104D30000EFB0CFC4FEA1C5300FB03114FEA112C35
:104D40004FEA01310EFB0CFC4FEADC4C00FB0C116E
:104D5000C14228BF09184CEB03335DF804EB10EB9C
:104D6000410143EBC250B2F57C0F38BF704729D5E3
:104D700012F0F00F1CBF00F1C04000F0004070477F
:104D8000008182838485868788898B8C8D8E8F9124
:104D90009293959697999A9C9D9FA0A2A3A5A7A848
:104DA000AAACAEB0B2B3B5B7B9BCBEC0C2C5C7C974
:104DB000CCCED1D4D7D9DCDFE2E6E9ECF0F3F7FAD8
:104DC000FE0000004FEA400C0CF1807CBCF17E4FED
:104DD00028BF7047B0F1C04000F03FB990EA010F22
:104DE0000CEAD11348BF42F48072624538BF634574
:104DF00007D213F47F0F16D080EA010000F00040C4
:104E0000704710B500F0E3F8097EFC3E00F005B8ED
:104E100080EA010000F00040704780EA010000F0E5
:104E2000004000F01AB912F47F0F04BF0248704727
:104E300080EA010000F011B90000C07FB0FA80F3F1
:104E400010FA03F2C3F19D030AD0D90501EB122039
:104E5000530638BF704700F1010008BF20F0010081
:104E60007047000050EA010C00F113801CF5000FA0
:104E700058BFBCF5000F01D48842704707D710F522
:104E8000000F58BF11F5000F15D4884270478942B2
:104E900070471CF5000F04D5BCF5000FF7D5814213
:104EA00070474FF0807C1CEB400F38BF1CEB410F6C
:104EB00001D28142704710B500F089F89224490070
:104EC0004FF000504FF08051FFF7EABE4FF47F0CD7
:104ED0001CEAD0121EBF1CEAD11392EA0C0F93EA0F
:104EE0000C0F00F0478090EA010F48BF42F4807237
:104EF0004FF0004C4CEA00204CEA012102EB030287
:104F0000A0FB0113A2F50002002918BF43F0010322
:104F10005B0028BF4FEA330342EB22425FEA132CC7
:104F20004CEBC2502EBFBCEB436FB2F57C0F704709
:104F30004FEA036CBCF1004F08BF20F00100B2F54E
:104F40007C0F38BF70470BD582F0FF0212F5803F0F
:104F5000C8BF704700F1C040D8BF00F000407047A4
:104F600000F5000C5FEA4C0C48BF7047B0F1C04040
:104F700000F073B890EA010F0CEAD11348BF42F475
:104F80008072624538BF634504D280EA010000F0B8
:104F90000040704710B500F01AF800BF8900013ECC
:104FA00000F007B800F009B85FEA410C5FEA1C6C3A
:104FB00008D080EA010000F050B85FEA400C5FEAD8
:104FC0001C6CF6D14FF00040A0F5800070470EF148
:104FD000020E2EF0030E5EF8044B244204D44FEA76
:104FE0004102B2F17F4F11D84FEA4003B3F17F4F36
:104FF0000CD80ED14FEAD07CB2F17F4F0CEB4C0CA9
:105000000CF1020C08BF4CEBD17C04E04FF0080C13
:1050100001E04FEAD17C0CEB4C0324FA03F404F0DA
:105020000704B4F1040C06D20EEB840CBDE810406A
:105030004CF0010C6047DFE80CF0070802024FF06B
:105040000040A0F5800010BD0846420018BFD2F114
:10505000807288BF00F0004010BDFF2141EAD050AF
:10506000C005704751EA000C00F113801CF5000FD9
:1050700058BFBCF5000F01D48142704707D711F526
:10508000000F58BF10F5000F15D4814270478942B8
:1050900070471CF5000F04D5BCF5000FF7D588420A
:1050A00070474FF0807C1CEB410F38BF1CEB400F6A
:1050B00001D28842704780EA010081EA000180EA5B
:1050C0000100FFF7F8BE000090EA010F48BF81F031
:1050D00000413FF58AAD421A04D882F00042A0EBAD
:1050E000020011444FEAD0524FF07F4C1CEA410FAE
:1050F000A2EBD15318BF9CEA026F4AD04FF0004C8C
:105100004CEA00204CEA012121FA03FCB0EB0C0C24
:105110000FD412F0FE0F36D05FEA4C001DD50012FE
:1051200040EBC25038BF70471CF03F0F18BF7047AC
:105130000BE0A2F101025FEA1C2040EBC25038BF35
:1051400070471CF07F0F18BF7047C3F120039940D0
:1051500014BF401E20F00100704780084FEA122360
:1051600008BF7047B0FA80FCA2EB0C02CCF1280C0F
:1051700060FA0CF093EA122F04BF00EBC2507047A4
:105180004FEAC3707047130A5FEADC1008BF70472C
:10519000F6E79CEA026F04D010EA5C0F08BF00201B
:1051A000704710B5FFF713FF40DFF63E81F0004077
:1051B0007047FEF71CBE0000000000000000000069
:1051C000303132333435363738394142434445463D
:1051D0004030580030313233343536373839616237
:1051E0006364656640307800040000080000000039
:1051F000000000020001000010000000024000005A
:10520000000000A00000000005400000000000C8F1
:10521000000000000C4000000000409C0000000066
:10522000194000000020BCBE000000003440000017
:10523000BFC91B8E00000004B5400000504BCFD00A
:105240006607E2CF010000006C4100003E8251AAD7
:10525000DFEEA73401000000D9420000DCB5A0E277
:105260003A301F97FFFFFFFFB4450000FD25A0C89F
:10527000E9A3C14FFFFFFFFFFF3F000000000080D8
:1052800000000000FF3F0000000000800000000060
:10529000DC53000800000020500000008C010008D2
:1052A0002C5400085000002098390000A801000884
:1052B0001C00000043000000F8FFFFFF0C0000008E
:1052C0000E0000000F0000002E0000001001000082
:1052D00043000000F8FFFFFF0040404040404040D6
:1052E00040404141414141404040404040404040B9
:1052F000404040404040404040050202020202025D
:1053000002020202020202020220202020202020AB
:1053100020202002020202020202909090909090BF
:10532000101010101010101010101010101010107D
:1053300010101010020202020202888888888888F1
:1053400008080808080808080808080808080808DD
:1053500008080808020202024000000000000000E5
:10536000000000000000000000000000000000003D
:10537000000000000000000000000000000000002D
:10538000000000000000000000000000000000001D
:10539000000000000000000000000000000000000D
:1053A00000000000000000000000000000000000FD
:1053B00000000000000000000000000000000000ED
:1053C00000000000000000000000000000000000DD
:1053D00000000000000000000000000000000000CD
:1053E0000102030401020304060708090204060877
:1053F00000000000000000000000000000000000AD
:10540000000000000000000000000000000000009C
:10541000000000000000000000366E0100000000E7
:0C54200000000000010203040607080958
:04000005080001519D
:00000001FF
